{"abi":[{"type":"constructor","inputs":[{"name":"_avsDirectory","type":"address","internalType":"address"},{"name":"_stakeRegistry","type":"address","internalType":"address"},{"name":"_rewardsCoordinator","type":"address","internalType":"address"},{"name":"_delegationManager","type":"address","internalType":"address"}],"stateMutability":"nonpayable"},{"type":"function","name":"allClaimHashes","inputs":[{"name":"","type":"uint32","internalType":"uint32"}],"outputs":[{"name":"","type":"bytes32","internalType":"bytes32"}],"stateMutability":"view"},{"type":"function","name":"allClaimResponses","inputs":[{"name":"","type":"address","internalType":"address"},{"name":"","type":"uint32","internalType":"uint32"}],"outputs":[{"name":"","type":"bytes","internalType":"bytes"}],"stateMutability":"view"},{"type":"function","name":"approveClaimSpending","inputs":[{"name":"claim","type":"tuple","internalType":"struct IInsuranceServiceManager.Claim","components":[{"name":"pool","type":"address","internalType":"address"},{"name":"insured","type":"address","internalType":"address"},{"name":"amount","type":"uint256","internalType":"uint256"},{"name":"index","type":"uint256","internalType":"uint256"},{"name":"claimCreatedBlock","type":"uint32","internalType":"uint32"},{"name":"isApproved","type":"bool","internalType":"bool"}]},{"name":"referenceClaimIndex","type":"uint32","internalType":"uint32"},{"name":"signature","type":"bytes","internalType":"bytes"}],"outputs":[],"stateMutability":"nonpayable"},{"type":"function","name":"avsDirectory","inputs":[],"outputs":[{"name":"","type":"address","internalType":"address"}],"stateMutability":"view"},{"type":"function","name":"createAVSRewardsSubmission","inputs":[{"name":"rewardsSubmissions","type":"tuple[]","internalType":"struct IRewardsCoordinator.RewardsSubmission[]","components":[{"name":"strategiesAndMultipliers","type":"tuple[]","internalType":"struct IRewardsCoordinator.StrategyAndMultiplier[]","components":[{"name":"strategy","type":"address","internalType":"contract IStrategy"},{"name":"multiplier","type":"uint96","internalType":"uint96"}]},{"name":"token","type":"address","internalType":"contract IERC20"},{"name":"amount","type":"uint256","internalType":"uint256"},{"name":"startTimestamp","type":"uint32","internalType":"uint32"},{"name":"duration","type":"uint32","internalType":"uint32"}]}],"outputs":[],"stateMutability":"nonpayable"},{"type":"function","name":"createNewClaim","inputs":[{"name":"pool","type":"address","internalType":"address"},{"name":"insured","type":"address","internalType":"address"},{"name":"amount","type":"uint256","internalType":"uint256"},{"name":"index","type":"uint256","internalType":"uint256"}],"outputs":[],"stateMutability":"nonpayable"},{"type":"function","name":"deregisterOperatorFromAVS","inputs":[{"name":"operator","type":"address","internalType":"address"}],"outputs":[],"stateMutability":"nonpayable"},{"type":"function","name":"factory","inputs":[],"outputs":[{"name":"","type":"address","internalType":"address"}],"stateMutability":"view"},{"type":"function","name":"getOperatorRestakedStrategies","inputs":[{"name":"_operator","type":"address","internalType":"address"}],"outputs":[{"name":"","type":"address[]","internalType":"address[]"}],"stateMutability":"view"},{"type":"function","name":"getRestakeableStrategies","inputs":[],"outputs":[{"name":"","type":"address[]","internalType":"address[]"}],"stateMutability":"view"},{"type":"function","name":"inisiator","inputs":[],"outputs":[{"name":"","type":"address","internalType":"address"}],"stateMutability":"view"},{"type":"function","name":"initialize","inputs":[{"name":"_factory","type":"address","internalType":"address"},{"name":"_operatorPublicKey","type":"string","internalType":"string"}],"outputs":[],"stateMutability":"nonpayable"},{"type":"function","name":"latestClaimNum","inputs":[],"outputs":[{"name":"","type":"uint32","internalType":"uint32"}],"stateMutability":"view"},{"type":"function","name":"mergeAddresses","inputs":[{"name":"_addr1","type":"address","internalType":"address"},{"name":"_addr2","type":"address","internalType":"address"}],"outputs":[{"name":"","type":"string","internalType":"string"}],"stateMutability":"pure"},{"type":"function","name":"operatorPublicKey","inputs":[],"outputs":[{"name":"","type":"string","internalType":"string"}],"stateMutability":"view"},{"type":"function","name":"owner","inputs":[],"outputs":[{"name":"","type":"address","internalType":"address"}],"stateMutability":"view"},{"type":"function","name":"registerOperatorToAVS","inputs":[{"name":"operator","type":"address","internalType":"address"},{"name":"operatorSignature","type":"tuple","internalType":"struct ISignatureUtils.SignatureWithSaltAndExpiry","components":[{"name":"signature","type":"bytes","internalType":"bytes"},{"name":"salt","type":"bytes32","internalType":"bytes32"},{"name":"expiry","type":"uint256","internalType":"uint256"}]}],"outputs":[],"stateMutability":"nonpayable"},{"type":"function","name":"renounceOwnership","inputs":[],"outputs":[],"stateMutability":"nonpayable"},{"type":"function","name":"respondToClaim","inputs":[{"name":"claim","type":"tuple","internalType":"struct IInsuranceServiceManager.Claim","components":[{"name":"pool","type":"address","internalType":"address"},{"name":"insured","type":"address","internalType":"address"},{"name":"amount","type":"uint256","internalType":"uint256"},{"name":"index","type":"uint256","internalType":"uint256"},{"name":"claimCreatedBlock","type":"uint32","internalType":"uint32"},{"name":"isApproved","type":"bool","internalType":"bool"}]},{"name":"referenceClaimIndex","type":"uint32","internalType":"uint32"},{"name":"signature","type":"bytes","internalType":"bytes"}],"outputs":[],"stateMutability":"nonpayable"},{"type":"function","name":"rewardsInitiator","inputs":[],"outputs":[{"name":"","type":"address","internalType":"address"}],"stateMutability":"view"},{"type":"function","name":"setRewardsInitiator","inputs":[{"name":"newRewardsInitiator","type":"address","internalType":"address"}],"outputs":[],"stateMutability":"nonpayable"},{"type":"function","name":"stakeRegistry","inputs":[],"outputs":[{"name":"","type":"address","internalType":"address"}],"stateMutability":"view"},{"type":"function","name":"transferOwnership","inputs":[{"name":"newOwner","type":"address","internalType":"address"}],"outputs":[],"stateMutability":"nonpayable"},{"type":"function","name":"updateAVSMetadataURI","inputs":[{"name":"_metadataURI","type":"string","internalType":"string"}],"outputs":[],"stateMutability":"nonpayable"},{"type":"event","name":"ClaimResponded","inputs":[{"name":"claimIndex","type":"uint32","indexed":true,"internalType":"uint32"},{"name":"claim","type":"tuple","indexed":false,"internalType":"struct IInsuranceServiceManager.Claim","components":[{"name":"pool","type":"address","internalType":"address"},{"name":"insured","type":"address","internalType":"address"},{"name":"amount","type":"uint256","internalType":"uint256"},{"name":"index","type":"uint256","internalType":"uint256"},{"name":"claimCreatedBlock","type":"uint32","internalType":"uint32"},{"name":"isApproved","type":"bool","internalType":"bool"}]},{"name":"operator","type":"address","indexed":false,"internalType":"address"}],"anonymous":false},{"type":"event","name":"Initialize","inputs":[{"name":"factory","type":"address","indexed":false,"internalType":"address"},{"name":"operatorPublicKey","type":"string","indexed":false,"internalType":"string"}],"anonymous":false},{"type":"event","name":"Initialized","inputs":[{"name":"version","type":"uint8","indexed":false,"internalType":"uint8"}],"anonymous":false},{"type":"event","name":"NewClaimCreated","inputs":[{"name":"claimIndex","type":"uint32","indexed":true,"internalType":"uint32"},{"name":"claim","type":"tuple","indexed":false,"internalType":"struct IInsuranceServiceManager.Claim","components":[{"name":"pool","type":"address","internalType":"address"},{"name":"insured","type":"address","internalType":"address"},{"name":"amount","type":"uint256","internalType":"uint256"},{"name":"index","type":"uint256","internalType":"uint256"},{"name":"claimCreatedBlock","type":"uint32","internalType":"uint32"},{"name":"isApproved","type":"bool","internalType":"bool"}]}],"anonymous":false},{"type":"event","name":"OwnershipTransferred","inputs":[{"name":"previousOwner","type":"address","indexed":true,"internalType":"address"},{"name":"newOwner","type":"address","indexed":true,"internalType":"address"}],"anonymous":false},{"type":"event","name":"RewardsInitiatorUpdated","inputs":[{"name":"prevRewardsInitiator","type":"address","indexed":false,"internalType":"address"},{"name":"newRewardsInitiator","type":"address","indexed":false,"internalType":"address"}],"anonymous":false}],"bytecode":{"object":"0x6101003461019957601f61211038819003918201601f19168301916001600160401b0383118484101761019e5780849260809460405283398101031261019957610048816101b4565b90610055602082016101b4565b61006d6060610066604085016101b4565b93016101b4565b9260a05260805260c05260e05260005460ff8160081c166101445760ff80821610610109575b609a80546001600160a01b03191633179055604051611f4790816101c9823960805181818161090001528181610d2f01528181610e680152818161105201526112ae015260a051818181610caf01528181610d5f01528181610e91015261100d015260c05181610194015260e051816113750152f35b60ff90811916176000557f7f26b83ff96e1f2b6a682f133852f6798a09c465da95921460cefb3847402498602060405160ff8152a138610093565b60405162461bcd60e51b815260206004820152602760248201527f496e697469616c697a61626c653a20636f6e747261637420697320696e697469604482015266616c697a696e6760c81b6064820152608490fd5b600080fd5b634e487b7160e01b600052604160045260246000fd5b51906001600160a01b03821682036101995756fe608080604052600436101561001357600080fd5b600090813560e01c9081630bd3c1ca1461181557508063278d84c01461156257806333cfb7b71461127d5780633bc28c8c146111fc5780634eb2d10c146111765780635ca8c8c214611081578063683048351461103c5780636b3aa72e14610ff75780636c09be8f14610fbe578063715018a614610f615780638da5cb5b14610f385780639926ee7d14610dc7578063a364f4da14610d0e578063a98fb35514610c62578063af38c76114610c23578063bb54ccf014610aae578063c45a015514610a85578063d2490434146109b1578063e481af9d146108db578063eaf40bcd146108b7578063f2fde38b146107ee578063f399e22e146105f5578063fc299dee146105cc5763fce36c7d1461012957600080fd5b3461023557602036600319011261023557600435906001600160401b0382116102355736602383011215610235578160040135916001600160401b0383116105c857602481018360051b9336602486850101116105c4576065546001600160a01b0316330361053f577f00000000000000000000000000000000000000000000000000000000000000006001600160a01b0381169590855b838110610378575050853b1561037457906040519363fce36c7d60e01b8552816024860160206004880152526044808601938601019392869160c219813603015b8484106102435788808981818e8183818f03925af18015610238576102245750f35b8161022e91611881565b6102355780f35b80fd5b6040513d84823e3d90fd5b9091929394956043198882030184528635828112156103705760a08201919084016024810135604219368390030181121561032157816024910101602081359101936001600160401b03821161036c578160061b3603851361036c57819060a085525260c0830193908c905b8082106103255750505060448101356001600160a01b03811690819003610321579282608063ffffffff61030d60a460209796600199898099015260648101356040870152836103016084830161183a565b1660608701520161183a565b169101529801940194019294939190610202565b8b80fd5b909194853560018060a01b03811680910361036857815260208601356001600160601b0381168091036103685760208201526040908101950191600101906102af565b8e80fd5b8c80fd5b8980fd5b8480fd5b8660206001600160a01b0361039882610392868a8c611ed7565b01611b0a565b16606460406103a8868a8c611ed7565b013560405194859384926323b872dd60e01b845233600485015230602485015260448401525af180156104cf57610523575b506001600160a01b036103f3602061039284888a611ed7565b604051636eb1769f60e11b81523060048201526001600160a01b03851660248201529160209183916044918391165afa9081156104cf5788916104ee575b506001600160a01b0361044a602061039285898b611ed7565b1690604061045984888a611ed7565b01359081018091116104da5760209060448b8b604051958694859363095ea7b360e01b8552600485015260248401525af180156104cf5790600192916104a1575b50016101c1565b6104c19060203d81116104c8575b6104b98183611881565b810190611ef9565b503861049a565b503d6104af565b6040513d8a823e3d90fd5b634e487b7160e01b89526011600452602489fd5b90506020813d821161051b575b8161050860209383611881565b81010312610517575138610431565b8780fd5b3d91506104fb565b61053a9060203d81116104c8576104b98183611881565b6103da565b60405162461bcd60e51b815260206004820152605160248201527f4543445341536572766963654d616e61676572426173652e6f6e6c795265776160448201527f726473496e69746961746f723a2063616c6c6572206973206e6f7420746865206064820152703932bbb0b932399034b734ba34b0ba37b960791b608482015260a490fd5b8380fd5b5080fd5b50346102355780600319360112610235576065546040516001600160a01b039091168152602090f35b50346102355760403660031901126102355761060f61194d565b90602435916001600160401b0383116105c857366023840112156105c8578260040135906001600160401b0382116107ea5736602483860101116107ea5760018060a01b03166001600160601b0360a01b6099541617609955610673609854611a18565b601f8111610791575b5081601f821160011461070a57819083946106ac94926106fc575b50508160011b916000199060031b1c19161790565b6098555b7fe67ddf372291fd94b39c4645817076a797a73cfdfbbf169187f7e5c374dfaeb060018060a01b036099541660405190815260406020820152806106f660408201611a52565b0390a180f35b602492500101353880610697565b60988352601f198216937f2237a976fa961f5921fd19f2b03c925c725d77b20ce8f790c19709c03de4d81491845b8681106107765750836001959610610759575b505050811b016098556106b0565b0160240135600019600384901b60f8161c1916905538808061074b565b90926020600181926024878701013581550194019101610738565b609883526107da907f2237a976fa961f5921fd19f2b03c925c725d77b20ce8f790c19709c03de4d814601f840160051c810191602085106107e0575b601f0160051c0190611af3565b3861067c565b90915081906107cd565b8280fd5b50346102355760203660031901126102355761080861194d565b610810611d55565b6001600160a01b0316801561086357603380546001600160a01b0319811683179091556001600160a01b03167f8be0079c531659141344cd1fd0a4f28419497f9722a3daafe3b4186f6b6457e08380a380f35b60405162461bcd60e51b815260206004820152602660248201527f4f776e61626c653a206e6577206f776e657220697320746865207a65726f206160448201526564647265737360d01b6064820152608490fd5b5034610235578060031936011261023557602063ffffffff60975416604051908152f35b50346102355780600319360112610235576040516302e0740360e31b815281816004817f00000000000000000000000000000000000000000000000000000000000000006001600160a01b03165afa90811561023857829161098f575b50610944815151611d23565b915b8151805182101561097d57600191906001600160a01b0390610969908390611cd4565b5151166109768286611cd4565b5201610946565b6040518061098b868261198d565b0390f35b6109ab91503d8084833e6109a38183611881565b810190611bc7565b38610938565b503461023557806109c136611906565b50506109cf60208201611b0a565b906109dc60a08201611b1e565b604051926109e984611850565b60018060a01b03168352604082013560208401526060820135604084015215156060830152610a1e60018060a01b0391611b0a565b16803b15610a8157604080516352622ffb60e01b815283516001600160a01b03166004820152602084015160248201529083015160448201526060909201511515606483015282908290818381608481015b03925af18015610238576102245750f35b5050fd5b50346102355780600319360112610235576099546040516001600160a01b039091168152602090f35b503461023557608036600319011261023557610ac861194d565b610ad0611963565b60405160c081018181106001600160401b03821117610c0f57604090815260a082018581526001600160a01b03948516808452939094166020808401828152604435858501908152606435606080880191825263ffffffff43811660808a0190815288519687019a8b52868901979097529685529098600198929793967fb40ce3699dc0e09be7202845d63e813e35ba6c676bccffadf460462c2ad29c829660c09692949193909290610b839082611881565b51902082609754168c52609b60205260408c205560975499828b16988998604051968c8060a01b0390511687528b8060a01b0390511660208701525160408601525160608501525116608083015251151560a0820152a20163ffffffff8111610bfb5763ffffffff169063ffffffff19161760975580f35b634e487b7160e01b83526011600452602483fd5b634e487b7160e01b85526041600452602485fd5b503461023557806003193601126102355761098b604051610c4e81610c4781611a52565b0382611881565b6040519182916020835260208301906119f3565b503461023557602036600319011261023557806004356001600160401b038111610d0b5736602382011215610d0b57610ca59036906024816004013591016118a2565b610cad611d55565b7f00000000000000000000000000000000000000000000000000000000000000006001600160a01b0316803b15610a815760405163a98fb35560e01b8152602060048201529183918391829084908290610a709060248301906119f3565b50fd5b50346102355760203660031901126102355780610d2961194d565b610d5d337f00000000000000000000000000000000000000000000000000000000000000006001600160a01b031614611b2b565b7f00000000000000000000000000000000000000000000000000000000000000006001600160a01b031690813b15610a81576040516351b27a6d60e11b81526001600160a01b0390911660048201529082908290602490829084905af18015610238576102245750f35b503461023557604036600319011261023557610de161194d565b906024356001600160401b0381116105c857606060031982360301126105c85760405160608101938185106001600160401b03861117610f2457839460405282600401356001600160401b03811161037457610e4390600436918601016118e8565b82526020820191602484013583526044604082019401358452610e8f60018060a01b037f0000000000000000000000000000000000000000000000000000000000000000163314611b2b565b7f00000000000000000000000000000000000000000000000000000000000000006001600160a01b031690813b15610f205785610f0293819560405197889687958694639926ee7d60e01b865260018060a01b0316600486015260406024860152516060604486015260a48501906119f3565b9151606484015251608483015203925af18015610238576102245750f35b8580fd5b634e487b7160e01b84526041600452602484fd5b50346102355780600319360112610235576033546040516001600160a01b039091168152602090f35b5034610235578060031936011261023557610f7a611d55565b603380546001600160a01b0319811690915581906001600160a01b03167f8be0079c531659141344cd1fd0a4f28419497f9722a3daafe3b4186f6b6457e08280a380f35b50346102355760203660031901126102355760043563ffffffff81168091036105c8578160409160209352609b83522054604051908152f35b50346102355780600319360112610235576040517f00000000000000000000000000000000000000000000000000000000000000006001600160a01b03168152602090f35b50346102355780600319360112610235576040517f00000000000000000000000000000000000000000000000000000000000000006001600160a01b03168152602090f35b50346102355760403660031901126102355761109b61194d565b6024359063ffffffff821682036107ea5760018060a01b03168252609c60205263ffffffff60408320911660005260205260406000209060405191818154916110e383611a18565b808652926001811690811561114c575060011461110b575b61098b85610c4e81870382611881565b815260208120939250905b80821061113257509091508101602001610c4e8261098b6110fb565b919260018160209254838588010152019101909291611116565b86955061098b96935060209250610c4e94915060ff191682840152151560051b82010192936110fb565b50346102355760403660031901126102355761098b61119361194d565b610c4e60016111b26111ac6111a6611963565b94611dad565b93611dad565b92602060405194826111cd87945180928580880191016119d0565b8301600160fd1b838201526111eb82518093856021850191016119d0565b01010301601f198101835282611881565b50346102355760203660031901126102355761121661194d565b61121e611d55565b606554604080516001600160a01b038084168252841660208201529192917fe11cddf1816a43318ca175bbc52cd0185436e9cbead7c83acc54a73e461717e39190a16001600160a01b03166001600160a01b0319919091161760655580f35b50346102355760203660031901126102355761129761194d565b6040516302e0740360e31b815290919081816004817f00000000000000000000000000000000000000000000000000000000000000006001600160a01b03165afa908115610238578291611548575b5091825151916112f583611bb0565b916113036040519384611881565b83835261130f84611bb0565b602084019590601f1901368737825b85811061151a57505060408051639004134760e01b81526001600160a01b0390921660048301526024820152825160448201819052909490829086906064820190835b8181106114f55750929350909150819003817f00000000000000000000000000000000000000000000000000000000000000006001600160a01b03165afa9384156114e8578194611452575b5080815b84811061142657506113c290611d23565b93815b8481106113da576040518061098b888261198d565b6113e48183611cd4565b516113f2575b6001016113c5565b9160019061141e906001600160a01b0361140c8688611cd4565b5116611418828a611cd4565b52611cfe565b9290506113ea565b6114308187611cd4565b5161143e575b6001016113b1565b9061144a600191611cfe565b919050611436565b9093503d8085833e6114648183611881565b810190602081830312610374578051906001600160401b038211610f2057019080601f8301121561037457815161149a81611bb0565b926114a86040519485611881565b81845260208085019260051b8201019283116114e457602001905b8282106114d45750505092386113ad565b81518152602091820191016114c3565b8680fd5b50604051903d90823e3d90fd5b85516001600160a01b031683526020958601958795508a945090920191600101611361565b600190818060a09995991b03611531828551611cd4565b51511661153e8288611cd4565b520195919561131e565b61155c91503d8084833e6109a38183611881565b386112e6565b50346102355761157136611906565b338452609c6020526040842063ffffffff8316855260205260408420908051906001600160401b038211611801576115a98354611a18565b601f81116117d1575b50602090601f831160011461176e576115e292918791836117635750508160011b916000199060031b1c19161790565b90555b60208201916115f383611b0a565b9060408101356060820135908660a084019461160e86611b1e565b6040519161161b83611850565b6001600160a01b0390811683526020830185905260408301869052901515606083015261164786611b0a565b1690813b156107ea576040805163246b033160e21b815282516001600160a01b03166004820152602083015160248201529082015160448201526060909101511515606482015291908290608490829084905af180156104cf57611740575b5063ffffffff926116f3926080926040519860018060a01b036116c885611979565b168a526001600160a01b03906116dd90611979565b1660208a0152604089015260608801520161183a565b16608084015235908115158092036105c45763ffffffff60e0917f7570c66a218b0be4e46db19238b937044a452f574b618a3d0c97e2ec05c8c4e79360a08601523360c08601521692a280f35b926116f392886117586080949a63ffffffff97611881565b9892509250926116a6565b015190503880610697565b8387528187209190601f198416885b8181106117b957509084600195949392106117a0575b505050811b0190556115e5565b015160001960f88460031b161c19169055388080611793565b9293602060018192878601518155019501930161177d565b6117fb9084885260208820601f850160051c810191602086106107e057601f0160051c0190611af3565b386115b2565b634e487b7160e01b86526041600452602486fd5b9050346105c857816003193601126105c857609a546001600160a01b03168152602090f35b359063ffffffff8216820361184b57565b600080fd5b608081019081106001600160401b0382111761186b57604052565b634e487b7160e01b600052604160045260246000fd5b90601f801991011681019081106001600160401b0382111761186b57604052565b9291926001600160401b03821161186b57604051916118cb601f8201601f191660200184611881565b82948184528183011161184b578281602093846000960137010152565b9080601f8301121561184b57816020611903933591016118a2565b90565b6003198101610100811261184b5760c01361184b5760049160c43563ffffffff8116810361184b579160e435906001600160401b03821161184b57611903916004016118e8565b600435906001600160a01b038216820361184b57565b602435906001600160a01b038216820361184b57565b35906001600160a01b038216820361184b57565b602060408183019282815284518094520192019060005b8181106119b15750505090565b82516001600160a01b03168452602093840193909201916001016119a4565b60005b8381106119e35750506000910152565b81810151838201526020016119d3565b90602091611a0c815180928185528580860191016119d0565b601f01601f1916010190565b90600182811c92168015611a48575b6020831014611a3257565b634e487b7160e01b600052602260045260246000fd5b91607f1691611a27565b60985460009291611a6282611a18565b8082529160018116908115611ad75750600114611a7d575050565b609860009081529293509091907f2237a976fa961f5921fd19f2b03c925c725d77b20ce8f790c19709c03de4d8145b838310611abd575060209250010190565b600181602092949394548385870101520191019190611aac565b9050602093945060ff929192191683830152151560051b010190565b818110611afe575050565b60008155600101611af3565b356001600160a01b038116810361184b5790565b35801515810361184b5790565b15611b3257565b60405162461bcd60e51b815260206004820152604a60248201527f4543445341536572766963654d616e61676572426173652e6f6e6c795374616b60448201527f6552656769737472793a2063616c6c6572206973206e6f7420746865207374616064820152696b65526567697374727960b01b608482015260a490fd5b6001600160401b03811161186b5760051b60200190565b60208183031261184b578051906001600160401b03821161184b57019060208282031261184b5760405191602083018381106001600160401b0382111761186b576040528051906001600160401b03821161184b570181601f8201121561184b57805190611c3482611bb0565b92611c426040519485611881565b82845260208085019360061b8301019181831161184b57602001925b828410611c6e5750505050815290565b60408483031261184b5760405190604082018281106001600160401b0382111761186b5760405284516001600160a01b038116810361184b5782526020850151906001600160601b038216820361184b5782602092836040950152815201930192611c5e565b8051821015611ce85760209160051b010190565b634e487b7160e01b600052603260045260246000fd5b6000198114611d0d5760010190565b634e487b7160e01b600052601160045260246000fd5b90611d2d82611bb0565b611d3a6040519182611881565b8281528092611d4b601f1991611bb0565b0190602036910137565b6033546001600160a01b03163303611d6957565b606460405162461bcd60e51b815260206004820152602060248201527f4f776e61626c653a2063616c6c6572206973206e6f7420746865206f776e65726044820152fd5b60018060a01b0316604051611dc3606082611881565b602a815260208101916040368437815115611ce85760308353815160011015611ce8576078602183015360295b60018111611e795750611e3557602261190391611e249360405194859261060f60f31b6020850152518092858501906119d0565b81010301601f198101835282611881565b606460405162461bcd60e51b815260206004820152602060248201527f537472696e67733a20686578206c656e67746820696e73756666696369656e746044820152fd5b90600f81166010811015611ce85760008451841015611ec357506f181899199a1a9b1b9c1cb0b131b232b360811b901a8383016020015360041c908015611d0d5760001901611df0565b634e487b7160e01b81526032600452602490fd5b9190811015611ce85760051b81013590609e198136030182121561184b570190565b9081602091031261184b5751801515810361184b579056fea2646970667358221220da56c57c985dd94e8c97ff13c6568718a90820b79f5930905918248cec12dd1664736f6c634300081a0033","linkReferences":{}},"methodIdentifiers":{"allClaimHashes(uint32)":"6c09be8f","allClaimResponses(address,uint32)":"5ca8c8c2","approveClaimSpending((address,address,uint256,uint256,uint32,bool),uint32,bytes)":"d2490434","avsDirectory()":"6b3aa72e","createAVSRewardsSubmission(((address,uint96)[],address,uint256,uint32,uint32)[])":"fce36c7d","createNewClaim(address,address,uint256,uint256)":"bb54ccf0","deregisterOperatorFromAVS(address)":"a364f4da","factory()":"c45a0155","getOperatorRestakedStrategies(address)":"33cfb7b7","getRestakeableStrategies()":"e481af9d","inisiator()":"0bd3c1ca","initialize(address,string)":"f399e22e","latestClaimNum()":"eaf40bcd","mergeAddresses(address,address)":"4eb2d10c","operatorPublicKey()":"af38c761","owner()":"8da5cb5b","registerOperatorToAVS(address,(bytes,bytes32,uint256))":"9926ee7d","renounceOwnership()":"715018a6","respondToClaim((address,address,uint256,uint256,uint32,bool),uint32,bytes)":"278d84c0","rewardsInitiator()":"fc299dee","setRewardsInitiator(address)":"3bc28c8c","stakeRegistry()":"68304835","transferOwnership(address)":"f2fde38b","updateAVSMetadataURI(string)":"a98fb355"},"id":143}